:020000040000FA
:060000000A128A110C280F
:10000800FE00030EF2000A08F3000A128A111928EA
:100018000A128A110F28F701F801F901FA01FB0108
:10002800FC0183010A128A11E3280A128A1123218A
:100038000A128A11831203138C1D232824287A2874
:100048001412141B282829282D28941F2C282D2801
:1000580034281308F1007108FA00141394131416C5
:1000680083160313941A39283A28572814193D2857
:100078003E285728831203131308F1007108FA0069
:100088008C11141683160313141C4B284C2846286D
:10009800831203131308F1007108F7005330F100BD
:1000A800F10B54287728941A5A285B287728141DAE
:1000B8005E285F287728831203131308F10071085C
:1000C800FA0083160313141078088312031393009D
:1000D80014165330F100F10B6F288316031314180C
:1000E800762877287128831203138C1173088A00E5
:1000F800720E8300FE0E7E0E090020308316031751
:10010800880089010130831603138900860188015C
:100118008312031389018601880140300A128A116B
:1001280003210A128A11831603130F178F160F1251
:100138000F149F131F129F12831203131F179F136D
:100148001F08C33914389F002130F500F50BAA2881
:10015800831203131F148316031307158714FF3024
:1001680092003F308312031397051708F0390C38B3
:1001780097001D08F0390C389D000F3095000F309E
:100188009B00CF3097051D129D128C1003309204EE
:1001980012158C1CD028D128CD288C108316031357
:1001A800071187108B170B178C15831203138C11EB
:1001B800831603130C17831203130C1308000A1277
:1001C8008A1181200A128A111030F600F60BEA28EB
:1001D8000000831203139F140A128A1114210A12B1
:1001E8008A110A307C020318FA28FB28FD28F80136
:1001F800F028F801F80AF0280A128A110C28F400ED
:100208007408831603139300263083120313940093
:100218008030831603139400910187150716080090
:10022800831203139F1819291A2922291030F40060
:10023800F40B1C290000831203139F140800831277
:1002480003130C1F282929292D291E08F0007008DE
:06025800FC000C1308007D
:04400E00D420FF3F7C
:00000001FF
