:020000040000FA
:060000000A128A110C280F
:10000800FE00030EF2000A08F3000A128A111828EB
:100018000A128A110F28F701F801F901FA01FB0108
:1000280083010A128A11E2280A128A1118210A1277
:100038008A11831203138C1D22282328792814126D
:10004800141B272828282C28941F2B282C283328D1
:100058001308F1007108F900141394131416831689
:100068000313941A38283928562814193C283D288F
:100078005628831203131308F1007108F9008C1134
:10008800141683160313141C4A284B284528831278
:1000980003131308F1007108F7005330F100F10B56
:1000A80053287628941A59285A287628141D5D282A
:1000B8005E287628831203131308F1007108F900EB
:1000C8008316031314107B0883120313930014166A
:1000D8005330F100F10B6E2883160313141875289A
:1000E80076287028831203138C1173088A00720E05
:1000F8008300FE0E7E0E0900203083160317880049
:10010800890101308316031389008601880183124F
:10011800031389018601880140300A128A11F820E8
:100128000A128A11831603130F178F160F120F1452
:100138009F131F129F12831203131F179F131F0869
:10014800C33914389F002130F500F50BA928831214
:1001580003131F148316031307158714FF30920027
:100168003F308312031397051708F0390C389700AE
:100178001D08F0390C389D000F3095000F309B009A
:10018800CF3097051D129D128C1003309204121562
:100198008C1CCF28D028CC288C1083160313071169
:1001A80087108B170B178C15831203138C1183166A
:1001B80003130C17831203130C1308000A128A1175
:1001C80080200A128A111030F600F60BE928000088
:1001D800831203139F140A128A1109210A128A1121
:1001E800EF280A128A110C28F400740883160313E6
:1001F8009300263083120313940080308316031370
:1002080094009101871507160800831203139F189D
:100218000E290F2917291030F400F40B11290000BA
:10022800831203139F140800831203130C1F1D2944
:100238001E2922291E08F0007008FB000C13080074
:04400E00D420FF3F7C
:00000001FF
