:020000040000FA
:060000000A128A110C280F
:10000800FE00030EF0000A08F1000A168A15F3290B
:100018000A128A110F28FB018313C8308400E330C9
:100028000A168A1517210A128A118317903084003C
:10003800A4300A168A1517210A128A1183010A1296
:100048008A15182883160313C4006B30A8002808E3
:10005800B100B52F25304506031933283428402828
:100068004508A80044088400280883178000013048
:10007800A8002808C407B52FB201B30183120313DF
:100088006A0884000A168A110A200A128A112E3A6E
:10009800031D4F285028A228831603133317013055
:1000A800A800280883120313EA0783160313C20162
:1000B800C30190280A30F2000030F30083160313BE
:1000C8004308F5004208F4000A168A15CE210A12E0
:1000D8008A11730883160313C3007208C2008312BF
:1000E80003136A0884000A168A110A200A128A1160
:1000F800D03E83160313A800FF3003180030A90070
:100108002808C2070318C30A2908C3070130A80032
:10011800280883120313EA0783126A0884000A1660
:100128008A110A200A128A110A168A1563210A12EC
:100138008A110318A028A1285E28AA288316031369
:10014800C201C3013316AA283315CE280130831201
:100158000313EA07FF306A0784000A168A110A2087
:100168000A128A1183160313C500A800A9012908D9
:10017800003A0319C028B52F2808003A0319CB2FD5
:10018800643A0319CE28023A0319A8280F3A03192A
:10019800CE28B52F00303205A80007303305A90056
:1001A800280829040319D928DA288D2E331EDD28BA
:1001B800DE28E2280630C2000030C300310884007F
:1001C80083130008BE00840A0008BF00840A0008E0
:1001D800C000840A0008C1000430A8002808B1073C
:1001E8004108F5004008F4003F08F3003E08F2001B
:1001F8000030F9000030F8000030F7000030F60059
:100208000A168A11FB200A128A1103180C290D29D3
:100218002A29831603134108F5004008F4003F0813
:10022800F3003E08F2000A168A153C210A128A11C8
:10023800750883160313C1007408C0007308BF0053
:100248007208BE000330B2040030B30483160313EF
:10025800B401B5014108F5004008F4003F08F30077
:100268003E08F2000030F9000030F8000030F700D6
:100278000030F6000A168A15EB230A128A110318B1
:1002880046294729472A031083160313400D410DB9
:10029800823EB400FF3003180030B500FF30B407C9
:1002A8000318B50AFF30B5070330F2000030F30039
:1002B8003508F5003408F4000A168A15CE210A120A
:1002C8008A11730883160313B5007208B4000A3044
:1002D80083120313A0000030A1008316031335080E
:1002E80083120313A3008316031334088312031322
:1002F800A2000A168A15A2250A128A11831203136C
:10030800210883160313B5008312031320088316EC
:100318000313B400B51F912992299829FF30B40717
:100328000318B50AFF30B5073403FF3A0A128A15D5
:100338009D240A128A118312031345088316031396
:10034800B90083120313440883160313B8008312F9
:100358000313430883160313B700831203134208D9
:1003680083160313B600410883120313AB008316E8
:100378000313400883120313AA00831603133F08CC
:1003880083120313A900831603133E088312031371
:10039800A80083160313390883120313AF008316CA
:1003A8000313380883120313AE00831603133708A8
:1003B80083120313AD008316031336088312031345
:1003C800AC000A128A153C210A128A1183120313FF
:1003D8002B0883160313B900831203132A08831604
:1003E8000313B80083120313290883160313B700F5
:1003F80083120313280883160313B6003908F5007F
:100408003808F4003708F3003608F2003F30F900E6
:100418008030F8000030F7000030F6000A168A1124
:10042800FB200A128A1103181A2A1B2A242AFF30D1
:1004380083160313B4070318B50AFF30B507472A14
:10044800831603133908F5003808F4003708F30059
:100458003608F2004130F9002030F8000030F7008B
:100468000030F6000A168A11FB200A128A11031CB2
:100478003E2A3F2A472A013083160313B40703187C
:10048800B50A0030B507831603134308803AFF0006
:1004980080307F02031D522A0D3042020318552A6C
:1004A800562A9D2A8316031342080A168A116B23BB
:1004B8000A128A11831203134508D9004408D80088
:1004C8004308D7004208D600831603134108831255
:1004D8000313DD0083160313400883120313DC00A3
:1004E800831603133F0883120313DB0083160313D9
:1004F8003E0883120313DA000A168A1178250A12B5
:100508008A1183120313590883160313C100831237
:100518000313580883160313C000831203135708E4
:1005280083160313BF00831203135608831603139D
:10053800BE00831603133508803AFF0080307F021F
:10054800031DA82A0A3034020318AB2AAC2AFD2A54
:10055800831603134108F5004008F4003F08F30030
:100568003E08F2000030F9000030F8000030F700D3
:100578000030F6000A168A15EB230A128A110318AE
:10058800C62AC72A6F2B8316031341088312031345
:10059800D80083160313400883120313D700831669
:1005A80003133F0883120313D600831603133E0870
:1005B80083120313D5000A168A150B260A128A110C
:1005C800831203135808570456045504031DED2AD3
:1005D800EE2A6F2B831603133508803AFF0080300C
:1005E8007F02031DF92A02303402031CFC2AFD2A6B
:1005F8006F2B831603133908F5003808F400370801
:10060800F3003608F2004030F9008930F800703005
:10061800F7005F30F6000A168A11FB200A128A11C9
:100628000318172B182B212BF73083160313B40745
:100638000318B50AFF30B507292BF83083160313C2
:10064800B4070318B50AFF30B50734080A128A152B
:100658009D240A128A118312031345088316031373
:10066800B90083120313440883160313B8008312D6
:100678000313430883160313B700831203134208B6
:1006880083160313B6004108F5004008F4003F083C
:10069800F3003E08F2003908F9003808F800370876
:1006A800F7003608F6000A168A119F210A128A11E5
:1006B800750883160313BD007408BC007308BB00DB
:1006C8007208BA000030C1000030C0000030BF001E
:1006D8000030BE00D52B8316031341088312031381
:1006E800D80083160313400883120313D700831618
:1006F80003133F0883120313D600831603133E081F
:1007080083120313D5000A168A150B260A128A11BA
:1007180083120313580883160313BD0083120313AF
:10072800570883160313BC00831203135608831655
:100738000313BB0083120313550883160313BA006F
:100748003D08F5003C08F4003B08F3003A08F200C5
:1007580000300A168A1587260A128A117508831628
:100768000313A3007408A2007308A1007208A00074
:100778004108A7004008A6003F08A5003E08A400BD
:100788000A168A153B240A128A11831603132308B2
:10079800C1002208C0002108BF002008BE00B40123
:1007A800B501C501C50A4508A80001300310A80D08
:1007B800FF3E031DDA2B0310280D693E84000A163C
:1007C8008A110A200A128A11A9000A168A110A2017
:1007D8000A128A11AA000A168A110A200A128A1114
:1007E800AB000A168A110A200A128A11AC002C08DA
:1007F8003D02031D092C2B083C02031D092C2A0865
:100808003B02031D092C29083A0203180C2C0D2C55
:100818000E2C182C0130A8002808C5070A304506F8
:10082800031D172C182CD72B03303205A8000030D5
:100838003305A900280829040319232C242CB62CD5
:100848002D30A80044088400280883178000013050
:10085800A8002808C407B62C4508A80001300310D2
:10086800A80DFF3E031D332C0310280D693E84009C
:100878000A168A110A200A128A11F2000A168A1127
:100888000A200A128A11F3000A168A110A200A128B
:100898008A11F4000A168A110A200A128A11F50030
:1008A8003D08F9003C08F8003B08F7003A08F60054
:1008B8000A168A153A250A128A117508831603132F
:1008C800B9007408B8007308B7007208B6000030A1
:1008D80083120313A8000030A7000030A6000A30D6
:1008E800A50083160313390883120313AC0083167B
:1008F8000313380883120313AB0083160313370856
:1009080083120313AA0083160313360883120313F2
:10091800A9000A168A158B240A128A118312031356
:10092800280883160313B9008312031327088316B4
:100938000313B80083120313260883160313B700A2
:1009480083120313250883160313B6003608303EB6
:10095800A800440884002808831780000130A800F4
:100968002808C4070130C502450A031DBC2CBD2C4C
:10097800302CD12C303083160313A800440884008F
:100988002808831780000130A8002808C407FF3012
:10099800B4070318B50AFF30B5073508803AFF00D9
:1009A80080307F02031DDA2C013034020318DD2C5D
:1009B800DE2CBE2C831603134308803AFF008030D8
:1009C8007F02031DE92C09304202031CEC2CED2C9C
:1009D800F42C083083160313A8002808C500FA2C45
:1009E800831603134208A8002808C5004508A80074
:1009F800A9012808C2022908031CC303C302450829
:100A08000319072D082D132D2E30A8004408840043
:100A18002808831780000130A8002808C407450863
:100A28000A128A159D240A128A1183120313450893
:100A380083160313B00083120313440883160313A9
:100A4800AF0083120313430883160313AE00831207
:100A58000313420883160313AD00300883120313EF
:100A6800AF00831603132F0883120313AE008316F7
:100A780003132E0883120313AD00831603132D08E6
:100A880083120313AC008316031341088312031364
:100A9800AB0083160313400883120313AA008316BE
:100AA80003133F0883120313A900831603133E0898
:100AB80083120313A8000A128A153C210A128A110C
:100AC800831203132B08D8002A08D7002908D60058
:100AD8002808D5000A168A150B260A128A118312CD
:100AE8000313580883160313BD0083120313570812
:100AF80083160313BC0083120313560883160313CB
:100B0800BB0083120313550883160313BA006D2E16
:100B18004508A80001300310A80DFF3E031D8F2DC6
:100B28000310280D693E84000A168A110A200A1249
:100B38008A11F2000A168A110A200A128A11F30091
:100B48000A168A110A200A128A11F4000A168A1152
:100B58000A200A128A11F5003D08F9003C08F8003D
:100B68003B08F7003A08F6000A168A153A250A12D1
:100B78008A11750883160313B9007408B80073083E
:100B8800B7007208B600003083120313A8000030C3
:100B9800A7000030A6000A30A50083160313390801
:100BA80083120313AC00831603133808831203134C
:100BB800AB0083160313370883120313AA008316A6
:100BC8000313360883120313A9000A168A158B2407
:100BD8000A128A1183120313280883160313B90013
:100BE80083120313270883160313B8008312031311
:100BF800260883160313B7008312031325088316E8
:100C08000313B6003608303EA800440884002808BC
:100C1800831780000130A8002808C4074508A800E9
:100C280001300310A80DFF3E031D152E0310280DDB
:100C3800693E84000A168A110A200A128A11831250
:100C48000313A5000A168A110A200A128A11A6009F
:100C58000A168A110A200A128A11A7000A168A118E
:100C68000A200A128A11A800831603133D0883126A
:100C78000313AC00831603133C0883120313AB0061
:100C8800831603133B0883120313AA008316031366
:100C98003A0883120313A9000A168A158B240A122C
:100CA8008A1183120313280883160313BD008312C5
:100CB8000313270883160313BC00831203132608A3
:100CC80083160313BB00831203132508831603132B
:100CD800BA000130C502450A031D732E742E8C2DEF
:100CE800862E3030A8004408840028088317800026
:100CF8000130A8002808C407FF30C2070318C30A38
:100D0800FF30C30742084304031D8B2E8C2E752E1B
:100D1800B52F3108840083130008A800840A00084E
:100D2800A9002808BA002908BB000030BB1BFF3007
:100D3800BC00BD000230A8002808B107BD1FA52EC1
:100D4800A62EB52E0330B2040030B304BA09BB098D
:100D5800BC09BD09BA0A0319BB0A0319BC0A03195D
:100D6800BD0A42084304031DBA2EBB2EC92E3D08F6
:100D78003C043B043A04031DC22EC32EC92E013085
:100D8800C2070318C30A0030C307C501C50A4508CE
:100D9800A80001300310A80DFF3E031DCE2E03103E
:100DA800280D693E84000A168A110A200A128A113F
:100DB800A9000A168A110A200A128A11AA000A161C
:100DC8008A110A200A128A11AB000A168A110A200F
:100DD8000A128A11AC002C083D02031DFD2E2B08B7
:100DE8003C02031DFD2E2A083B02031DFD2E290887
:100DF8003A020318002F012F022F0C2F0130A800F0
:100E08002808C5070A304506031D0B2F0C2FCB2ECB
:100E18004308803A803C031D132F420845020318FB
:100E2800162F172F182F302F831603134308803AD5
:100E3800A80080302802031D232F4508420203180A
:100E4800262F272F302F831603134508A800A90142
:100E58002808C2002908C30003308316031332058B
:100E6800A80000303305A9002808290403193D2FDC
:100E78003E2FA72F2D30A800440884002808831788
:100E880080000130A8002808C407A72F003083126B
:100E98000313A8000030A7000030A6000A30A50000
:100EA800831603134208A80001300310A80DFF3E63
:100EB800031D592F0310280D693E84000A168A1154
:100EC8000A200A128A11F2000A168A110A200A1246
:100ED8008A11F3000A168A110A200A128A11F400EC
:100EE8000A168A110A200A128A11F5003D08F9002B
:100EF8003C08F8003B08F7003A08F6000A168A157D
:100F08003A250A128A11750883120313AC00740873
:100F1800AB007308AA007208A9000A168A158B2468
:100F28000A128A11831203132508303E831603130D
:100F3800A9002908C5004508A80044088400280815
:100F480083178000452FFF30C2070318C30AFF30FC
:100F5800C307420A031DB42F430A031DB42FB52F3C
:100F68004A2F013083120313EA07FF306A0784000F
:100F78000A168A110A200A128A1183160313A80076
:100F88002808C5004508031DCA2FCB2F2E28440862
:100F980084008317800108000A168A1547210A125F
:100FA8008A118316031391150A168A1547210A1206
:100FB8008A11831203131308F400F5017408F6006C
:100FC8007508F7000A168A1547210A128A11720352
:100FD8007304031DF02FF12FF52F831603139112BD
:100FE800F82F83160313911611167708F300760865
:040FF800F2000800FB
:101006008316031318121815831603178711193040
:101016008316031399009A01831203139817181362
:10102600181683160313981608000A168A15402206
:101036000A128A158316031388010A168A15722264
:101046000A128A150A168A115D220A128A15831651
:1010560003135A0C83120313031C091103180915F1
:10106600831603135603570403193A283B284228CC
:10107600063058065904031D412842284B2883127E
:101086000313091483160313DA01DB01FB014E284F
:1010960083120313091006308316031358065904E6
:1010A600031D562857285B288312031389145E28CC
:1010B6008312031389108316031354088312031330
:1010C6008500D43083160313C60046088312031323
:1010D600EA0083160313570883120313EC008316E2
:1010E6000313560883120313EB0090300A128A1179
:1010F60026200A128A15F501F50A02300A168A1503
:10110600AA210A128A159030F4000130F5000A1659
:101116008A1519230A128A15F501F50A01300A16ED
:101126008A15AA210A128A15DE30F4008030F500ED
:101136000A168A1519230A128A150730831603130D
:10114600C6004608F50001300A168A15AA210A12B9
:101156008A15CF30F4008030F5000A168A15192357
:101166000A128A150E3083160313C6004608F500C8
:1011760001300A168A15AA210A128A15D930F400F6
:101186008030F5000A168A1519230A128A15C0300E
:1011960083160313C600460883120313EA00831658
:1011A6000313590883120313EC008316031358081C
:1011B60083120313EB0090300A128A1126200A12BA
:1011C6008A15073083160313C6004608F500023059
:1011D6000A168A15AA210A128A159030F4000130DF
:1011E600F5000A168A1519230A128A15C8308316BD
:1011F6000313C600460883120313EA00831603137B
:10120600550883120313EC00831603135408831244
:101216000313EB0090300A128A1126200A128A154F
:101226000D3083160313C6004608F50002300A1671
:101236008A15AA210A128A159030F4000130F500A9
:101246000A168A1519230A128A156830831603139B
:10125600C700E330C600C60B2E29C70B2E2933293B
:101266000A168A15A1230A128A1525280A128A1136
:101276000C28831203132B088039B0003008B50000
:101286002B08B0003007B1003108BB00AA1F4C295B
:101296004D294E293B143B0803195229532962292B
:1012A6003B0A031D5729582960290030AB0000303E
:1012B600AA000030A9000030A800AA176A29003049
:1012C600AB000030AA000030A9000030A8002F08AB
:1012D6008039B0003008B5062F08B0003007B100DD
:1012E6003108BA00AE1F782979297A293A143A08C2
:1012F60003197E297F298E293A0A031D8329842909
:101306008C290030AF000030AE000030AD00003058
:10131600AC00AE1796290030AF000030AE000030AA
:10132600AD000030AC003A0803199A299B29A02980
:101336003B08031D9F29A029A9290030AB000030D6
:10134600AA000030A9000030A8009C2C2808B00094
:101356003008F2002E080A168A1519220A128A1572
:10136600730883120313C1007208C0004008B0005E
:10137600B101B201B3013308B9003208B80031082F
:10138600B7003008B6004108B000B101B201B301A0
:101396003308BF003208BE003108BD003008BC006B
:1013A6002908B0003008F2002D080A168A151922FD
:1013B6000A128A15730883120313C1007208C0004B
:1013C6004008B000B101B201B3013008B6073108D8
:1013D60003110318013E0319F129B7073208031157
:1013E6000318013E0319F829B80733080311031837
:1013F600013E0319FF29B9074108B000B101B20146
:10140600B3013008BC07310803110318013E031964
:101416000D2ABD07320803110318013E0319142AC9
:10142600BE07330803110318013E03191B2ABF0721
:101436002A08B0003008F2002C080A168A1519226C
:101446000A128A15730883120313C1007208C000BA
:101456004008B000B101B201B3013008B607310847
:1014660003110318013E0319392AB707320803117D
:101476000318013E0319402AB8073308031103185D
:10148600013E0319472AB9074108B000B101B2016C
:10149600B3013008BC07310803110318013E0319D4
:1014A600552ABD07320803110318013E03195C2AA9
:1014B600BE07330803110318013E0319632ABF0749
:1014C6000830B0000310B60DB70DB80DB90DB00B4E
:1014D600652A2908B0003008F2002C080A168A1579
:1014E60019220A128A15730883120313C10072089F
:1014F600C0004008B0004108B100B201B301300895
:10150600B607310803110318013E03198B2AB707E2
:10151600320803110318013E0319922AB80733084B
:1015260003110318013E0319992AB9072808B000C8
:101536003008F2002D080A168A1519220A128A1591
:10154600730883120313C1007208C0004008B0007C
:101556004108B100B201B3013008B60731080311E2
:101566000318013E0319B82AB707320803110318F6
:10157600013E0319BF2AB807330803110318013EB9
:101586000319C62AB9070830B0000310B60DB70D07
:10159600B80DB90DB00BC82A2808B0003008F20003
:1015A6002C080A168A1519220A128A15730883123C
:1015B6000313C1007208C0004008B0004108B10022
:1015C600B201B3013008B607310803110318013E12
:1015D6000319EE2AB707320803110318013E03194F
:1015E600F52AB807330803110318013E0319FC2A2C
:1015F600B9072908B0003008F2002E080A168A1525
:1016060019220A128A15730883120313C10072087D
:10161600C0004008B0004108B100B201B301300873
:10162600BC07310803110318013E03191B2BBD0724
:10163600320803110318013E0319222BBE07330893
:1016460003110318013E0319292BBF072A08B0000E
:101656003008F2002D080A168A1519220A128A1570
:10166600730883120313C1007208C0004008B0005B
:101676004108B100B201B3013008BC0731080311BB
:101686000318013E0319482BBD073208031103183E
:10169600013E03194F2BBE07330803110318013E01
:1016A6000319562BBF072A08B0003008F2002E088F
:1016B6000A168A1519220A128A1573088312031349
:1016C600C1007208C0004008B0004108B100B20174
:1016D600B30108300310B00DB10DB20DB30DFF3ECE
:1016E600031D6D2B3008BC07310803110318013E9A
:1016F60003197E2BBD07320803110318013E031997
:10170600852BBE07330803110318013E03198C2BE2
:10171600BF073608B0003708B1003808B2003908EC
:10172600B30018300310B30CB20CB10CB00CFF3E72
:10173600031D952B3008BC07310803110318013E21
:101746000319A62BBD07320803110318013E03191E
:10175600AD2BBE07330803110318013E0319B42B42
:10176600BF070830B0000310B60DB70DB80DB90DA0
:10177600B00BB62B3B083A07B000B101B10D3008EB
:10178600823EC00031080318013EFF3EC100E82B2F
:101796000130B0000310BC0DBD0DBE0DBF0DB00B6A
:1017A600CD2BB91FD72BD82BD92B3C140130B00029
:1017B6000310B60DB70DB80DB90DB00BDB2BFF300E
:1017C600C0070318C10AFF30C107BE1FEB2BEC2B65
:1017D600CB2BBA01B91FF02BF12B0D2CFF303605A0
:1017E600B000FF303705B100FF303805B2007F305A
:1017F6003905B30033083204310430040319042CCC
:10180600052C082CBA01BA0A0D2C3C1C0B2C0C2CEE
:101816000D2C052C3A080319112C122C432C0130DF
:10182600BC07003003180130BD0700300318013033
:10183600BE07003003180130BF073F1C232C242CA1
:10184600432C3C08B0003D08B1003E08B2003F08FA
:10185600B3000130B400330DB30CB20CB10CB00CB4
:10186600B40B2E2C3308BF003208BE003108BD0071
:101876003008BC000130C0070318C10A0030C10798
:101886004108803AFF0080307F02031D4C2CFF3058
:101896004002031C4F2C502C5B2C7F308312031309
:1018A600BF008030BE000030BD000030BC00902C70
:1018B600831203134108803AFF0080307F02031D24
:1018C600662C013040020318692C6A2C762C0030F5
:1018D60083120313BF000030BE000030BD0000308D
:1018E600BC00B501902C831203134008B0003008E9
:1018F600BB00FF30BC05FF30BD057F30BE050030A4
:10190600BF053B1C872C882C892CBE173B08B000D2
:101916000310300CB1003108BF003508B0003008A4
:10192600BF043F08AB003E08AA003D08A9003C08DA
:10193600A800080083120313D400D41FA32CA42CE0
:10194600532ED409D40A5408803A123E031CAC2CF8
:10195600AD2C972D0A30A0000030A1005408F400E9
:10196600F501F41BF5036430F2000030F3000A16AB
:101976008A15E1240A128A15730883120313A30039
:101986007208A2000A168A15A2250A128A1583125F
:1019960003132008C60001300310C60DFF3E031DC9
:1019A600CF2C0310460D593E84000A168A110A20D0
:1019B6000A128A15C7000A168A110A200A128A15FF
:1019C600C8000A168A110A200A128A15C9000A16C0
:1019D6008A110A200A128A15CA004A08AB00490869
:1019E600AA004808A9004708A8006430A0000030F3
:1019F600A1005408A200A301A21BA3030A168A157C
:101A0600A2250A128A15831203132008CB0001307F
:101A16000310CB0DFF3E031D0B2D03104B0D7D3E1A
:101A260084000A168A110A200A128A15CC000A16A0
:101A36008A110A200A128A15CD000A168A110A206E
:101A46000A128A15CE000A168A110A200A128A1567
:101A5600CF004F08AF004E08AE004D08AD004C0851
:101A6600AC000A128A153C210A128A158312031346
:101A76002B08D3002A08D2002908D1002808D00054
:101A86000A30F2000030F3005408F400F501F41BAC
:101A9600F5030A168A15E1240A128A1572088312BA
:101AA6000313C60001300310C60DFF3E031D562D5D
:101AB6000310460D353E84000A168A110A200A12C2
:101AC6008A15C7000A168A110A200A128A15C80042
:101AD6000A168A110A200A128A15C9000A168A11DC
:101AE6000A200A128A15CA004A08AB004908AA0049
:101AF6004808A9004708A8005308AF005208AE00DE
:101B06005108AD005008AC000A128A153C210A1291
:101B16008A15831203132B08C5002A08C400290856
:101B2600C3002808C200FF2F5408803A753E031CE4
:101B36009D2D9E2D262E0A30F2000030F30054080B
:101B4600F400F501F41BF5030A168A15E1240A12BE
:101B56008A15720883120313C60001300310C60DDE
:101B6600FF3E031DB12D0310460D353E84000A16B7
:101B76008A110A200A128A15C7000A168A110A2033
:101B86000A128A15C8000A168A110A200A128A152C
:101B9600C9000A168A110A200A128A15CA004A08BA
:101BA600AB004908AA004808A9004708A8000A305F
:101BB600A0000030A1005408A200A301A21BA303A9
:101BC6000A168A15A2250A128A15831203132008FB
:101BD600CB0001300310CB0DFF3E031DED2D03108E
:101BE6004B0D593E84000A168A110A200A128A15DC
:101BF600CC000A168A110A200A128A15CD000A1686
:101C06008A110A200A128A15CE000A168A110A209B
:101C16000A128A15CF004F08AF004E08AE004D08D5
:101C2600AD004C08AC000A128A153C210A128A152E
:101C3600831203132B08C5002A08C4002908C30011
:101C46002808C200FF2F5408C60001300310C60D35
:101C5600FF3E031D292E0310460D353E84000A164D
:101C66008A110A200A128A15C7000A168A110A2042
:101C76000A128A15C8000A168A110A200A128A153B
:101C8600C9000A168A110A200A128A15CA004A08C9
:101C9600C5004908C4004808C3004708C200FF2F12
:101CA6005408803A123E031C592E5A2E442F0A30ED
:101CB600A0000030A1005408F400F501F41BF50360
:101CC6006430F2000030F3000A168A15E1240A1285
:101CD6008A15730883120313A3007208A2000A165A
:101CE6008A15A2250A128A15831203132008C60034
:101CF60001300310C60DFF3E031D7C2E0310460D5A
:101D0600253E84000A168A110A200A128A15C7007F
:101D16000A168A110A200A128A15C8000A168A119A
:101D26000A200A128A15C9000A168A110A200A12FE
:101D36008A15CA004A08AB004908AA004808A90043
:101D46004708A8006430A0000030A1005408A20093
:101D5600A301A21BA3030A168A15A2250A128A1535
:101D6600831203132008CB0001300310CB0DFF3E76
:101D7600031DB82E03104B0D493E84000A168A1126
:101D86000A200A128A15CC000A168A110A200A129B
:101D96008A15CD000A168A110A200A128A15CE0063
:101DA6000A168A110A200A128A15CF004F08AF00B8
:101DB6004E08AE004D08AD004C08AC000A128A155C
:101DC6003C210A128A15831203132B08D3002A0812
:101DD600D2002908D1002808D0000A30F2000030CD
:101DE600F3005408F400F501F41BF5030A168A15EE
:101DF600E1240A128A15720883120313C600013001
:101E06000310C60DFF3E031D032F0310460D013EB2
:101E160084000A168A110A200A128A15C7000A16B1
:101E26008A110A200A128A15C8000A168A110A207F
:101E36000A128A15C9000A168A110A200A128A1578
:101E4600CA004A08AB004908AA004808A900470882
:101E5600A8005308AF005208AE005108AD00500864
:101E6600AC000A128A153C210A128A158312031342
:101E76002B08C5002A08C4002908C3002808C20088
:101E8600FF2F5408803A753E031C4A2F4B2FD32F41
:101E96000A30F2000030F3005408F400F501F41B98
:101EA600F5030A168A15E1240A128A1572088312A6
:101EB6000313C60001300310C60DFF3E031D5E2F3F
:101EC6000310460D013E84000A168A110A200A12E2
:101ED6008A15C7000A168A110A200A128A15C8002E
:101EE6000A168A110A200A128A15C9000A168A11C8
:101EF6000A200A128A15CA004A08AB004908AA0035
:101F06004808A9004708A8000A30A0000030A10030
:101F16005408A200A301A21BA3030A168A15A22530
:101F26000A128A15831203132008CB00013003100E
:101F3600CB0DFF3E031D9A2F03104B0D253E84004B
:101F46000A168A110A200A128A15CC000A168A1164
:101F56000A200A128A15CD000A168A110A200A12C8
:101F66008A15CE000A168A110A200A128A15CF008F
:101F76004F08AF004E08AE004D08AD004C08AC004F
:101F86000A128A153C210A128A15831203132B089A
:101F9600C5002A08C4002908C3002808C200FF2F6C
:101FA6005408C60001300310C60DFF3E031DD62F90
:101FB6000310460D013E84000A168A110A200A12F1
:101FC6008A15C7000A168A110A200A128A15C8003D
:101FD6000A168A110A200A128A15C9000A168A11D7
:101FE6000A200A128A15CA004A08C5004908C40010
:101FF6004808C3004708C2000800FF1B0A288313CD
:102006007F1883170008840A0319FF0A0800103096
:102016008A000408840A82070034003400348034BD
:102026003F34003400342034413400340034C834A2
:102036004234003400347A344434003440341C349E
:10204600463400345034C3344734003424347434B2
:1020560049348034963418344B342034BC34BE347E
:102066004C3428346B346E344E34F934023415341F
:102076005034EC347834AD346034CA34F2344934F4
:1020860071340034003480343F34CD34CC34CC3415
:102096003D340A34D73423343C346F341234833419
:1020A6003A341734B734D1343834AC34C5342734E1
:1020B6003734BD343734863435349534BF34D6346A
:1020C60033347734CC342B3432345F34703489343F
:1020D6003034FF34E634DB342E340834E5343C3413
:1020E6001E3460344234A2340D34013400340034DA
:1020F60000340A34003400340034643400340034CC
:102106000034E83403340034003410342734003407
:102116000034A034863401340034403442340F3461
:10212600003480349634983400340034E134F53485
:1021360005340034CA349A343B340D3420347634B2
:1021460061346C346F347234533431343D34253455
:102156002E343234663420340A3400340A342034BF
:10216600763461346C346F347234533432343D34E3
:1021760025342E34323466340A3400340A3420349A
:1021860063346F346E347434613464346F3472344F
:102196003D3425346434003425342E3432346434EA
:1021A60055346E346934003425342E343234643474
:1021B6006B346734003445346E347634613400341D
:1021C6002534643463346D340034503465347334E8
:1021D6006F34003455346C347434723400340A1657
:1021E6008A1547210A168A1183160313111508004A
:1021F6000030720583120313A00000307305A1009E
:1022060080307405A2007F307505A30023082204E0
:1022160021042004031D1029112919290030F50075
:102226000030F4000030F3000030F2000030760594
:10223600A00000307705A10080307805A2007F302D
:102246007905A3002308220421042004031D2C2958
:102256002D2935290030F9000030F8000030F7004C
:102266000030F600F51F382939295D290030A00015
:102276000030A1000030A2008030A3007208A00246
:102286007308031C730F48294929A1027408031C0B
:10229600740F4E294F29A2027508031C750F542985
:1022A6005529A3022308F5002208F4002108F300AB
:1022B6002008F200F91F6029612985290030A00055
:1022C6000030A1000030A2008030A3007608A002F2
:1022D6007708031C770F70297129A1027808031C5F
:1022E600780F76297729A2027908031C790F7C29B1
:1022F6007D29A3022308F9002208F8002108F70027
:102306002008F6008030F5068030F9067908750257
:10231600031D972978087402031D9729770873020D
:10232600031D97297608720203189A299B299D296D
:1023360003109E29031408000310740D750DFA008E
:102346007A0883120313A5002508031DAB29AC29BF
:10235600B5290030F5000030F4000030F3000030FD
:10236600F2005C2A0310780D790DFA007A08A400B1
:102376002408031DBF29C029C129AC29F417FF3041
:10238600F205FF30F305FF30F4050030F505F817C8
:10239600FF30F605FF30F705FF30F8050030F90588
:1023A6000030A3000030A2000030A1000030A000E1
:1023B6007F30A502A0302407FA007A08A502203053
:1023C600FA007A08A4000130FA000310A00DA10D4E
:1023D600A20DA30DFA0BE82979087502031DFD2944
:1023E60078087402031DFD2977087302031DFD2971
:1023F60076087202031C002A012A102A7608F202C5
:102406007708031C770FF3027808031C780FF40291
:102416007908031C790FF50220140130FA00031025
:10242600F20DF30DF40DF50DFA0B122A0130A4028C
:10243600031D1E2A1F2AE629A51F222A232A3D2A12
:102446002508803A9F3E0318292A2A2A2B2AAC29D6
:1024560001300310A30CA20CA10CA00CFF3E031D1F
:102466002C2A0130FA007A08A507031D3B2A3C2ACC
:102476002B2A542A20302502031C422A432A4F2A9B
:10248600AC290130FA000310A00DA10DA20DA30D79
:10249600FA0B462A0130A5022508031D532A542AA1
:1024A600442A2308F5002208F4002108F300200836
:1024B600F20008000A168A151F210A168A115030E2
:1024C600F2000030F3000A168A1528210A168A112E
:1024D6007B08F800F9017808F2007908F3000A167B
:1024E6008A1528210A168A110A168A11F2200A1656
:1024F6008A110230FA000430F900BA30F800F80BFD
:10250600822AF90B822AFA0B822A00000A168A15F9
:102516001F210A168A115130F2000030F3000A1604
:102526008A1528210A168A110030F200F3000A12D1
:102536008A11D0270A168A11730883160313D50049
:102546007208D4000A168A11F2200A168A1102307D
:10255600FA000430F900BA30F800F80BB02AF90B8B
:10256600B02AFA0BB02A00000A168A151F210A168D
:102576008A112030F2000030F3000A168A1528214D
:102586000A168A11831603135508F3005408F2003D
:102596000A168A1528210A168A110A168A11F220A5
:1025A6000A168A110230FA000430F900BA30F8002F
:1025B600F80BDB2AF90BDB2AFA0BDB2A00000A16DA
:1025C6008A151F210A168A112130F2000030F30005
:1025D6000A168A1528210A168A110030F200F3001D
:1025E6000A128A11D0270A168A1173088316031352
:1025F600D9007208D8000A168A11F2200A168A1122
:102606000230FA000430F900BA30F800F80B092B52
:10261600F90B092BFA0B092B00000A168A151F2144
:102626000A168A114030F2000030F3000A168A15A5
:1026360028210A168A117B08F800F9017808F200A9
:102646007908F3000A168A1528210A168A110A162D
:102656008A11F2200A168A110230FA000430F900B3
:10266600BA30F800F80B352BF90B352BFA0B352B56
:1026760000000A168A151F210A168A114130F20037
:102686000030F3000A168A1528210A168A1100302E
:10269600F200F3000A128A11D0270A168A1173086B
:1026A60083160313D7007208D6000A168A11F22081
:1026B6000A168A110230FA000430F900BA30F8001E
:1026C600F80B632BF90B632BFA0B632B0000080046
:1026D60083120313D5006E305502031C732B742B23
:1026E600832C3F30AB000030AA000030A900003038
:1026F600A8006430A0000030A1005508C600C7013C
:102706004608A2004708A3000A168A155B230A1684
:102716008A11831203132008C80001300310C80D64
:10272600FF3E031D912B0310480D7D3E84000A16C3
:102736008A110A200A168A11C9000A168A110A2065
:102746000A168A11CA000A168A110A200A168A115E
:10275600CB000A168A110A200A168A11CC004C08E8
:10276600AF004B08AE004A08AD004908AC000A129B
:102776008A153C210A168A11831203132B08D400EA
:102786002A08D3002908D2002808D1000A30A00060
:102796000030A1005508C600C7014608F4004708E6
:1027A600F5006430F2000030F3000A168A15DF22C5
:1027B6000A168A11730883120313A3007208A20073
:1027C6000A168A155B230A168A1183120313200838
:1027D600C80001300310C80DFF3E031DED2B03108A
:1027E600480D593E84000A168A110A200A168A11D3
:1027F600C9000A168A110A200A168A11CA000A1680
:102806008A110A200A168A11CB000A168A110A2092
:102816000A168A11CC004C08AB004B08AA004A08DD
:10282600A9004908A8005408AF005308AE00520892
:10283600AD005108AC000A128A153C210A168A110D
:10284600831203132B08D0002A08CF002908CE00D4
:102856002808CD000A30F2000030F3005508C60003
:10286600C7014608F4004708F5000A168A15DF2254
:102876000A168A11720883120313C8000130031066
:10288600C80DFF3E031D422C0310480D353E840043
:102896000A168A110A200A168A11C9000A168A110E
:1028A6000A200A168A11CA000A168A110A200A166E
:1028B6008A11CB000A168A110A200A168A11CC0040
:1028C6004C08AB004B08AA004A08A9004908A80012
:1028D6005008AF004F08AE004E08AD004D08AC00E2
:1028E6000A128A153C210A168A11831203132B0831
:1028F600C5002A08C4002908C3002808C200772D8D
:102906000B305502031C882C892C342D3F30AB002C
:102916000030AA000030A9000030A8000A30A0004C
:102926000030A1005508C600C7014608A2004708A6
:10293600A3000A168A155B230A168A11831203134B
:102946002008C80001300310C80DFF3E031DA62C49
:102956000310480D593E84000A168A110A200A16E9
:102966008A11C9000A168A110A200A168A11CA0093
:102976000A168A110A200A168A11CB000A168A112B
:102986000A200A168A11CC004C08AF004B08AE008C
:102996004A08AD004908AC000A128A153C210A16FD
:1029A6008A11831203132B08D4002A08D30029089E
:1029B600D2002808D1000A30F2000030F300550892
:1029C600C600C7014608F4004708F5000A168A152E
:1029D600DF220A168A11720883120313C800013017
:1029E6000310C80DFF3E031DF32C0310480D353EA2
:1029F60084000A168A110A200A168A11C9000A16C4
:102A06008A110A200A168A11CA000A168A110A2091
:102A16000A168A11CB000A168A110A200A168A118A
:102A2600CC004C08AB004B08AA004A08A90049088C
:102A3600A8005408AF005308AE005208AD00510874
:102A4600AC000A128A153C210A168A118312031356
:102A56002B08C5002A08C4002908C3002808C2009C
:102A6600772D3F30AB000030AA000030A9000030BF
:102A7600A8005508C60001300310C60DFF3E031D11
:102A86003F2D0310460D353E84000A168A110A2092
:102A96000A168A11C7000A168A110A200A168A110E
:102AA600C8000A168A110A200A168A11C9000A16CF
:102AB6008A110A200A168A11CA004A08AF00490874
:102AC600AE004808AD004708AC000A128A153C2142
:102AD6000A168A11831203132B08C5002A08C4009C
:102AE6002908C3002808C2000800831203135908E6
:102AF6008039DE005E08E6005908DE005E07DF006A
:102B06005F08E800D81F882D892D8A2D681468086B
:102B160003198E2D8F2D9F2D680A031D932D942D3D
:102B26009C2D0030D9000030D8000030D70000308E
:102B3600D600D817D901A72D0030D9000030D8000B
:102B46000030D7000030D6005D088039DE005E0810
:102B5600E700670866060319B12DB22DB32D661777
:102B66005D08DE005E07DF005F08E700DC1FBC2DA6
:102B7600BD2DBE2D671467080319C22DC32DD32D95
:102B8600670A031DC72DC82DD02D0030DD0000308B
:102B9600DC000030DB000030DA00DC17DD01DB2D65
:102BA6000030DD000030DC000030DB000030DA00F1
:102BB600680867020318E02DE12D252E661FE42D17
:102BC600E52DE92D8030DE005E08E6066808DE00A9
:102BD6005E08E9006708DE005E08E8006908DE00B6
:102BE6005E08E7005608DE005E08E9005A08DE00C7
:102BF6005E08D6006908DE005E08DA005708DE00C7
:102C06005E08E9005B08DE005E08D7006908DE00A2
:102C16005E08DB005808DE005E08E9005C08DE009E
:102C26005E08D8006908DE005E08DC005908DE0090
:102C36005E08E9005D08DE005E08D9006908DE006E
:102C46005E08DD00E9016708DE00DF015F08E100DC
:102C560068085E02E000031CE1036108803AFF0099
:102C660080307F02031D392E1A306002031C3C2E71
:102C76003D2E7A2E8312031359085804570456041E
:102C8600031D462E482E0130492E0030DE005E0818
:102C9600E9000030D9000030D8000030D7000030FD
:102CA600D6006708DE005E08E800822E691C5C2EEE
:102CB6005D2E662E6908DE0003105E0C0138DF000B
:102CC6005F08E900682E0310E90C561C6B2E6C2E6B
:102CD6006D2EE9170130DE00590DD90CD80CD70C32
:102CE600D60CDE0B6F2E0130DE005E08E80783127D
:102CF600031367086802031C812E822E592E661B59
:102D0600852E862ED12E6808031D8A2E8B2E942E94
:102D16000030D9000030D8000030D7000030D6008F
:102D2600FF2F5A08D6075B0803110318013E031943
:102D36009D2ED7075C0803110318013E0319A42E24
:102D4600D8075D0803110318013E0319AB2ED907F6
:102D5600591CAE2EAF2E852F691CB22EB32EBC2E5B
:102D66006908DE0003105E0C0138DF005F08E90029
:102D7600BE2E0310E90C561CC12EC22EC32EE91717
:102D86000130DE00590DD90CD80CD70CD60CDE0B51
:102D9600C52E0130DE005E08E807852F5908803A07
:102DA600FF005D08803A7F02031DE32E5C0858028F
:102DB600031DE32E5B085702031DE32E5A08560235
:102DC6000318E62EE72E3F2FFF30DE00FF30DF0030
:102DD600FF30E000FF30E1005A08E2005B08E30044
:102DE6005C08E4005D08E5005608E2025708031C8B
:102DF600570FFE2EFF2EE3025808031C580F042F10
:102E0600052FE4025908031C590F0A2F0B2FE50260
:102E16006208DE0763080318630F122F132FDF07FC
:102E260064080318640F182F192FE00765080318A4
:102E3600650AE1076108D9006008D8005F08D70075
:102E46005E08D6008030DE005E08E606E909E90A7B
:102E56006908031D2F2F302F4D2F0130D607003064
:102E660003180130D707003003180130D8070030A7
:102E760003180130D9074D2F5A08D6025B08031CE8
:102E86005B0FD7025C08031C5C0FD8025D08031CAD
:102E96005D0FD9025908580457045604031D542FD0
:102EA600552F812F6908031D592F5A2F812F003066
:102EB600D9000030D8000030D7000030D600FF2FF0
:102EC6000130DE000310D60DD70DD80DD90DDE0B5F
:102ED600652FE91F6F2F702F712F5614691C742FE1
:102EE600752F782F0314E90D7A2F0310E90D680862
:102EF60003197E2F7F2F812F0130E802D81F842FE0
:102F0600852F632FE701E91F892F8A2F982F6908DC
:102F16007F3903198F2F902F932FE701E70A982FF8
:102F2600561C962F972F982F902F670803199C2FC2
:102F36009D2FD12F0130D607003003180130D70757
:102F4600003003180130D807003003180130D907C4
:102F5600591CAE2FAF2FD12F5608DE005708DF00C1
:102F66005808E0005908E1000130E200610DE10C6B
:102F7600E00CDF0CDE0CE20BB92F6108D90060080B
:102F8600D8005F08D7005E08D600680A0319CC2F60
:102F9600CD2FD12F0130DE005E08E807680A03193D
:102FA600D52FD62FDB2F6808031DDA2FDB2FE92F4D
:102FB6000030D9000030D8000030D7000030D600ED
:102FC6006808031DE72FE82FE92FE601681CEC2FA0
:102FD600ED2FEF2FD817F32F7F30DE005E08D805D0
:102FE6006808DE0003105E0CDF005F08D900E61FEC
:0A2FF600FD2FFE2FFF2FD917080052
:10322E0064008001840A0406031900340406182978
:10323E000A168A1547210A168A15831603131114C6
:10324E0008000A168A1547210A168A157208831273
:10325E00031393000800F200831203130C1E382987
:10326E00392933297208990008007508740473040B
:10327E00720403194329442946298030F5060800B3
:10328E008316031314194C294D29472911081F3988
:10329E00031D5229532947290800F30083120313F3
:1032AE0086177308880006170D30F200F20B5D29A1
:1032BE008312031306130800F300F2013A3073026F
:1032CE0003186A296B29732930307302031C702985
:1032DE0071297329F201F20A720C0800F4008312AC
:1032EE00031386137408880006170630F300303077
:1032FE00F200F20B8029F30B8029000083120313D6
:10330E0006130800F600F401F5019E2974087607ED
:10331E00F3007308840000080A168A1532210A1673
:10332E008A150130F4070318F50A0030F507740802
:10333E007607F3007308840083170008031DA8297D
:10334E00A9298D290800F7007703031DAF29B0299D
:10335E00BC2975087F3EF6007608F80078080A1634
:10336E008A1575210A168A15CD2902307706031D96
:10337E00C129C229CD297508BF3EF6007608F8008E
:10338E0078080A168A1575210A168A150800F6019C
:10339E00F701721CD329D429DA297408F607031809
:1033AE00F70A7508F70701300310F40DF50DFF3E0F
:1033BE00031DDB2901300310F30CF20CFF3E031D3D
:1033CE00E22972087304031DED29EE29D02977082E
:1033DE00F3007608F20008000B1CF629F729112AD3
:1033EE00831203130618FC29FD29112A01308316B6
:1033FE000313DA000030DB0056085704031D082AB9
:10340E00092A112A5A035B04031D0E2A0F2A112AB8
:10341E00FB01FB0A0B1071088A00700E8300FE0E72
:10342E007E0E0900FA00F601F7017208F400F501AC
:10343E007408F8007508F9007A1C262A272A2D2A06
:10344E007808F6070318F70A7908F7070130031012
:10345E00F80DF90DFF3E031D2E2A0310FA0C7A0803
:10346E00031D3A2A3B2A232A7708F3007608F20036
:10347E00080083160317880189018316031385013B
:10348E0001308600890106148113013095008312E4
:10349E000313850189010030A8000130A700863092
:1034AE00A600A030A5000A168A15A7220A168A15AC
:1034BE00831603130F178F160F120F140A128A1585
:1034CE0003200A168A158316031316148B178B15F1
:1034DE000B100B17080083120313861300300A1605
:1034EE008A1575210A168A151430F6007930F50002
:1034FE00F50B7F2AF60B7F2A842A30300A168A159E
:10350E0075210A168A153530F500F50B8C2A3830E0
:10351E000A168A1575210A168A1501300A168A1599
:10352E0075210A168A1506300A168A1575210A168D
:10353E008A150F300A168A1575210A168A15080083
:10354E002830831203139400831603139101831200
:10355E0003132508A9002608AA002708AB0028088F
:10356E00AC0002300310A90DAA0DAB0DAC0DFF3E41
:10357E00031DB92A2C08F5002B08F4002A08F300C5
:10358E002908F2000030F9003D30F8000930F7004C
:10359E000030F6000A168A153A250A168A157208A0
:1035AE00FF3E831603139300940187150716080038
:1035BE00720873040319E42AE52A142BF701F70A9B
:1035CE00F32A01300310F20DF30DFF3E031DE92A1D
:1035DE000130F6007608F707F31FF62AF72AE82AD5
:1035EE0073087502031DFD2A72087402031C002B5A
:1035FE00012B072B7208F4027308031CF503F50266
:10360E0001300310F30CF20CFF3E031D082B0130AA
:10361E00F702031D132B142BF72A7508F3007408F9
:10362E00F2000800F901FA013E2B79087407F70041
:10363E007508F6000318F60AF91F262BF60376080E
:10364E00F800780883120313FF00770884000A1627
:10365E008A1100200A168A150A168A1554210A168E
:10366E008A150130F9070318FA0A0030FA077908AB
:10367E007407F7007508F6000318F60AF91F482BB1
:10368E00F6037608F800780883120313FF00770814
:10369E0084000A168A1100200A168A15003A031DA4
:1036AE00592B5A2B1C2B080083120313A501A601BC
:1036BE00200821040319642B652B9C2BA401A40A5A
:1036CE00732B01300310A00DA10DFF3E031D692BBE
:1036DE000130F8007808A407A11F762B772B682BF2
:1036EE0001300310A50DA60DFF3E031D782B2108FA
:1036FE002302031D842B20082202031C872B882BF8
:10370E008F2B2008A2022108031CA303A302251459
:10371E0001300310A10CA00CFF3E031D902B0130B5
:10372E00A402031D9B2B9C2B772B2608A10025089A
:10373E00A0000800913083120313EF006F08EA0017
:10374E000030EE000030ED000030EC000030EB00F9
:10375E0090300A128A1126200A168A1590300A16FF
:10376E008A1589210A168A15A23083120313EF00D7
:10377E006F08EA000030EE000030ED000030EC0083
:10378E000030EB0090300A128A1126200A168A1594
:10379E0090300A168A1589210A168A15B2308312BC
:1037AE000313EF006F08EA000030EB00EC009030DE
:1037BE000A128A1126200A168A1590300A168A15C0
:1037CE0089210A168A150800003072058312031328
:1037DE00A00000307305A10080307405A2007F3078
:1037EE007505A3002308220421042004031D002CC8
:1037FE00012C092C0030F5000030F4000030F300ED
:10380E000030F20000307605A00000307705A100F0
:10381E0080307805A2007F307905A30023082204AA
:10382E0021042004031D1C2C1D2C252C0030F90016
:10383E000030F8000030F7000030F6007908750609
:10384E00031D332C78087406031D332C770873067A
:10385E00031D332C760872060319362C372C392C9F
:10386E0003103A2C03140800803083160313A306AA
:10387E00270883120313D900831603132608831215
:10388E000313D80083160313250883120313D700DE
:10389E0083160313240883120313D600831603130F
:1038AE00230883120313DD008316031322088312E9
:1038BE000313DC0083160313210883120313DB00AA
:1038CE0083160313200883120313DA000A168A11D3
:1038DE0078250A168A1583120313590883160313C3
:1038EE00A30083120313580883160313A200831236
:1038FE000313570883160313A100831203135608EC
:10390E0083160313A000080083120313280827044C
:10391E00260425040319942C952CD82CAE01AE0A3E
:10392E00A52C0130AD000310A50DA60DA70DA80DF9
:10393E00AD0B9A2C0130AD002D08AE07A81FA82C98
:10394E00A92C982C28082C02031DB72C27082B0213
:10395E00031DB72C26082A02031DB72C25082902A1
:10396E00031CBA2CBB2CC92C2508A9022608031C43
:10397E00260FAA022708031C270FAB022808031CD8
:10398E00280FAC0201300310A80CA70CA60CA50C36
:10399E00FF3E031DCA2C0130AE02031DD72CD82CBE
:1039AE00A92C2C08A8002B08A7002A08A600290875
:1039BE00A5000800F801F51FE52CE62CED2CF40906
:1039CE00F509F40A0319F50AF801F80AF31FF02CA9
:1039DE00F12CF62CF209F309F20A0319F30A720814
:1039EE0073040319FB2CFC2C2B2DF701F70A0A2D5F
:1039FE0001300310F20DF30DFF3E031D002D0130BB
:103A0E00F6007608F707F31F0D2D0E2DFF2C730809
:103A1E007502031D142D72087402031C172D182D28
:103A2E001E2D7208F4027308031CF503F502013013
:103A3E000310F30CF20CFF3E031D1F2D0130F70295
:103A4E00031D2A2D2B2D0E2D780803192F2D302D09
:103A5E00352DF409F509F40A0319F50A7508F30072
:103A6E007408F2000800003083120313A300003024
:103A7E00A2000030A1000030A00075087404730489
:103A8E00720403194B2D4C2D992DA401A40A5C2D03
:103A9E000130FA000310F20DF30DF40DF50DFA0BD3
:103AAE00512D0130FA007A08A407F51F5F2D602D05
:103ABE004F2D0130FA000310A00DA10DA20DA30D84
:103ACE00FA0B622D75087902031D772D74087802A2
:103ADE00031D772D73087702031D772D720876026A
:103AEE00031C7A2D7B2D8A2D7208F6027308031C97
:103AFE00730FF7027408031C740FF8027508031C89
:103B0E00750FF902201401300310F50CF40CF30CB0
:103B1E00F20CFF3E031D8B2D0130A402031D982DC8
:103B2E00992D602D2308F5002208F4002108F300DA
:103B3E002008F200080083120313A501A11FA82D6F
:103B4E00A92DB02DA009A109A00A0319A10AA5014A
:103B5E00A50AA31FB32DB42DBD2DA209A309A20A38
:103B6E000319A30A0130F9007908A506A601A701D9
:103B7E00200821040319C42DC52DFC2DA401A40A6F
:103B8E00D32D01300310A00DA10DFF3E031DC92D35
:103B9E000130F9007908A407A11FD62DD72DC82D05
:103BAE0001300310A60DA70DFF3E031DD82D2108D1
:103BBE002302031DE42D20082202031CE72DE82D0D
:103BCE00EF2D2008A2022108031CA303A302261432
:103BDE0001300310A10CA00CFF3E031DF02D01308F
:103BEE00A402031DFB2DFC2DD72D25080319002E35
:103BFE00012E062EA609A709A60A0319A70A270849
:103C0E00A1002608A0000800031083120313570D0D
:103C1E00580DD9005908DF005F08031D172E182E06
:103C2E00212E0030D8000030D7000030D6000030F2
:103C3E00D500862E5508D9005608DA005708DB0045
:103C4E005808DC001F300310DC0CDB0CDA0CD90C2E
:103C5E00FF3E031D2A2E5908DD005D08DE00D71732
:103C6E00FF30D505FF30D605FF30D7050030D8051B
:103C7E009630DF02DF1F442E452E5F2E5F08803AFE
:103C8E00973E03184B2E4C2E4D2E182E013003103E
:103C9E00D80CD70CD60CD50CFF3E031D4E2E013082
:103CAE00D9005908DF07031D5D2E5E2E4D2E762E90
:103CBE0020305F02031C642E652E712E182E0130EB
:103CCE00D9000310D50DD60DD70DD80DD90B682EF2
:103CDE000130DF025F08031D752E762E662E5E08FC
:103CEE0003197A2E7B2E862ED509D609D709D80927
:103CFE00D50A0319D60A0319D70A0319D80A0800D8
:103D0E0083120313A000200803198E2E8F2EA32ECC
:103D1E00F51F922E932EA32E7209A2007309A300F3
:103D2E007409A4007509A500A20A0319A30A0319B0
:103D3E00A40A0319A50AAB2E7508A5007408A400E1
:103D4E007308A3007208A200750874047304720449
:103D5E00031DB22EB32EBC2E0030F5000030F40041
:103D6E000030F3000030F200422F9630F600760855
:103D7E00A100CE2E0130F6007608A1070130031007
:103D8E00A50CA40CA30CA20CFF3E031DC62EFE30E8
:103D9E002505031DD32ED42EC12EF02E0130F60094
:103DAE007608A1070130A207003003180130A307DF
:103DBE00003003180130A407003003180130A507A6
:103DCE0001300310A50CA40CA30CA20CFF3E031D86
:103DDE00E82EFF302505031DF52EF62ED52E022FCB
:103DEE000130A1020130F6000310A20DA30DA40DA7
:103DFE00A50DF60BFB2EA41B052F062F0C2F023044
:103E0E00210203180B2F0C2FF72E21180F2F102F16
:103E1E00182FFF30A205FF30A3057F30A405FF3019
:103E2E00A5050310A10C2108F600F701F801F90110
:103E3E0018300310F60DF70DF80DF90DFF3E031DAA
:103E4E00202F7608A2047708A3047808A404790822
:103E5E00A50420080319342F352F3A2FF51F382FBC
:103E6E00392F3A2FA5172508F5002408F40023084A
:103E7E00F3002208F2000800720883120313A00058
:103E8E007308A1007408A2000310210D220DA300D7
:103E9E002308A9002908031D552F562F5F2F003028
:103EAE00F5000030F4000030F3000030F200FF2F78
:103EBE007608A0007708A1007808A2000310210D53
:103ECE00220DA3002308A8002808031D6F2F702FB2
:103EDE00712F562FF317FF30F205FF30F305003028
:103EEE00F405F717FF30F605FF30F7050030F8053B
:103EFE000030A7000030A6000030A5000030A4005E
:103F0E007F30A90298302807A0002008A902183097
:103F1E00A0002008A8000130A0000310A40DA50DDC
:103F2E00A60DA70DA00B942F78087402031DA52FC4
:103F3E0077087302031DA52F76087202031CA82FA3
:103F4E00A92FB42F7608F2027708031C770FF3021D
:103F5E007808031C780AF402241401300310F20DC1
:103F6E00F30DF40DFF3E031DB52F0130A802031D06
:103F7E00C12FC22F922FA91FC52FC62FE02F2908A0
:103F8E00803A973E0318CC2FCD2FCE2F562F0130CF
:103F9E000310A70CA60CA50CA40CFF3E031DCF2FDF
:103FAE000130A0002008A907031DDE2FDF2FCE2F22
:103FBE00F72F18302902031CE52FE62FF22F562F6C
:103FCE000130A0000310A40DA50DA60DA70DA00B8A
:103FDE00E92F0130A9022908031DF62FF72FE72F2D
:103FEE002708F5002608F4002508F3002408F2003F
:023FFE000800B9
:04400E00D420FF3F7C
:00000001FF
