:020000040000FA
:060000000A128A110C280F
:10000800FE00030EF1000A08F2000A128A111528F0
:100018000A128A110F28F401F50183010A128A11C4
:10002800BD280B1C18281928232883120313061827
:100038001E281F2823280130F000700885070B10A0
:10004800831203138C1D29282A287E281412141BB6
:100058002E282F283328941F322833283A281308AB
:10006800F0007008F5001413941314168316031384
:10007800941A3F2840285B281419432844285B28F1
:10008800831203131308F0007008F5008C1114167E
:1000980083160313141C512852284C288312031367
:1000A800130888005330F000F00B58287B28941A66
:1000B8005E285F287B28141D622863287B2883120A
:1000C80003131308F0007008F500831603131410C7
:1000D800831203130508930014165330F000F00B35
:1000E80073288316031314187A287B28752883121B
:1000F80003138C1172088A00710E8300FE0E7E0EA7
:10010800090020308316031788008901831603131A
:100118008501033086008113013095008312031393
:100128008501860120300A128A11AC200A128A1130
:100138008316031316140F178F160F120F148B172D
:100148008B150B100B178C15831203138C110800D9
:10015800F3007308831603139300263083120313E6
:1001680094008030831603139400910187150716B5
:1001780008000A128A1185200A128A11C2280A1256
:040188008A110C28A4
:04400E00D420FF3F7C
:00000001FF
