:020000040000FA
:060000000A128A110C280F
:10000800FE00030EF2000A08F3000A128A111728EC
:100018000A128A110F28F601F701F801F901830184
:100028000A128A118D280B1C1A281B2826288312CD
:10003800031306182028212826280130F00070080C
:10004800850786130B10831203138C1D2C282D286B
:1000580086281412141B312832283628941F352874
:1000680036283D281308F0007008F900141394137B
:10007800141683160313941A422843286328141964
:10008800462847286328831203131308F0007008D2
:10009800F9008C11141683160313141C54285528C0
:1000A8004F28831203131308F000F1017008F600BB
:1000B8007108F7005330F000F00B60288328941A79
:1000C800662867288328141D6A286B2883288312CA
:1000D80003131308F0007008F900831603131410B3
:1000E800831203130508930014165330F000F00B25
:1000F8007B28831603131418822883287D288312EB
:1001080003138C1173088A00720E8300FE0E7E0E94
:1001180009000A128A11D9200A128A1183120313BC
:1001280086170730831203130502031C9C289D2899
:100138009E288501861FA128A3280130A428003005
:10014800F5007708803AFF0080307F02031DAE2853
:10015800C93076020318B128B3280130B42800301A
:10016800750500380319B928BA28C1283E3083120A
:1001780003139B009D161D1295287708803AFF00EF
:1001880080307F02031DCA28053076020318CD2867
:10019800CE2895289C30831203139B009D121D16B0
:1001A800861795280A128A110C28203083160317FF
:1001B80088008901831603138501013086008113A5
:1001C80001309500831203138501860120300A123D
:1001D8008A1125210A128A118316031316140F1780
:1001E8008F160F120F1407158714FF3092003F3037
:1001F8008312031397051708F0390C3897001D0868
:10020800F0390C389D000F3095000F309B00CF302F
:1002180097051D129D128C100330920412158C1C28
:100228001629172913298C10831603130711871011
:100238008B178B150B100B178C15831203138C114E
:100248000800F40074088316031393002630831201
:1002580003139400803083160313940091018715CB
:04026800071608006D
:04400E00D420FF3F7C
:00000001FF
