:020000040000FA
:060000000A128A110C280F
:10000800FE00030EF2000A08F3000A128A111828EB
:100018000A128A110F28F701F801F901FA01FB0108
:1000280083010A128A11FF280A128A1141210A1231
:100038008A1105307B020318222823282E287703EB
:10004800031D272828282E283E30831203139500E5
:1000580097161712C9307B02031C332834283A2814
:100068009C308312031395009712171683120313FB
:100078008C1D3F28402896281412141B4428452814
:100088004928941F4828492850281308F100710866
:10009800F90014139413141683160313941A55288D
:1000A80056287328141959285A28732883120313B9
:1000B8001308F1007108F9008C1114168316031344
:1000C800141C672868286228831203131308F10098
:1000D8007108F7005330F100F10B70289328941A37
:1000E800762877289328141D7A287B28932883124A
:1000F80003131308F1007108F90083160313141091
:100108007B0883120313930014165330F100F10B8C
:100118008B28831603131418922893288D2883128A
:1001280003138C1173088A00720E8300FE0E7E0E74
:1001380009002030831603178800890101308316CF
:10014800031389008601880183120313890186013C
:10015800880150300A128A1121210A128A11831645
:1001680003130F178F160F120F149F131F129F12CE
:10017800831203131F179F131F08C33914389F00D6
:100188002130F500F50BC628831203131F148316BC
:10019800031307158714FF3092003F3083120313AF
:1001A80097051708F0390C3897001D08F0390C38F6
:1001B8009D000F3095000F309B00CF3097051D1222
:1001C8009D128C100330920412158C1CEC28ED281B
:1001D800E9288C1083160313071187108B170B1748
:1001E8008C15831203138C11831603130C178312B7
:1001F80003130C1308000A128A119D200A128A118F
:100208001030F600F60B06290000831203139F1422
:100218000A128A1132210A128A117703031D15293D
:1002280016291A298312031386170C29831203131C
:1002380086130C290A128A110C28F40074088316F4
:10024800031393002630831203139400803083161F
:1002580003139400910187150716080083120313EE
:100268009F183729382940291030F400F40B3A290F
:100278000000831203139F140800831203130C1F3A
:10028800462947294B291E08F0007008FB000C136B
:0202980008005C
:04400E00D420FF3F7C
:00000001FF
