:020000040000FA
:060000000A128A110C280F
:10000800FE00030EF2000A08F3000A128A11CE2C31
:100018000A128A110F28F701F801F9018312031354
:10002800E201E301E40183010A128A11F82983122B
:10003800031335088039B6003608BF003508B60006
:100048003607B7003708C600B41F2B282C282D28E0
:10005800461446080319312832284228460A031D47
:10006800362837283F280030B5000030B40000306B
:10007800B3000030B200B417B5014A280030B5000B
:100088000030B4000030B3000030B20031088039CD
:10009800B6003608BF063108B6003607B70037087D
:1000A800C700B01F582859285A2847144708031969
:1000B8005E285F286F28470A031D632864286C2878
:1000C8000030B1000030B0000030AF000030AE00AA
:1000D800B017B10177280030B1000030B00000300F
:1000E800AF000030AE00310830042F042E04031D89
:1000F8007E287F2898280030B5000030B4000030F2
:10010800B3000030B2008030B4047F30B5043F083B
:10011800B6003608B5043508B1003408B000330815
:10012800AF003208AE00F7294608031D9C289D2819
:10013800A6280030B1000030B0000030AF00003019
:10014800AE00F7294608B600B7013708B9004708D6
:100158003602B800031CB90338087F3EC0003908CE
:100168000318013E003EC1003508BE003408BD003A
:100178003308BC003208BB000030B5000030B400C2
:100188000030B3000030B2000030C5000030C400B9
:100198000030C3000030C200C7011C2947080319FA
:1001A800D628D728F7280130B6000310BB0DBC0DA0
:1001B800BD0DBE0DB60BD9280130B6000310B20D27
:1001C800B30DB40DB50DB60BE228C51FEC28ED280C
:1001D800EE2832140130B6000310C20DC30DC40D51
:1001E800C50DB60BF02831083E02031D052930085D
:1001F8003D02031D05292F083C02031D05292E0871
:100208003B02031C08290929182945172E08BB0297
:100218002F08031C2F0FBC023008031C300FBD022F
:100228003108031C310FBE020130B6003608C7077B
:100238001A304702031C21292229D2283E083D04EE
:100248003C043B04031929292A294929421449292C
:100258000130B6000310B20DB30DB40DB50DB60BD9
:100268002E29C51F382939293A2932140130B600F8
:100278000310C20DC30DC40DC50DB60B3C29FF30CC
:10028800C0070318C10AFF30C107B41F4C294D2904
:100298002C29C701C51F512952296E29FF30420553
:1002A800B600FF304305B700FF304405B8007F3083
:1002B8004505B90039083804370436040319652997
:1002C80066296929C701C70A6E29321C6C296D295C
:1002D8006E2966294708031972297329A429013050
:1002E800B207003003180130B3070030031801309B
:1002F800B407003003180130B507351C8429852957
:10030800A4293208B6003308B7003408B800350805
:10031800B9000130BA00390DB90CB80CB70CB60CDD
:10032800BA0B8F293908B5003808B4003708B3006C
:100338003608B2000130C0070318C10A0030C107EF
:100348004108803AFF0080307F02031DAD29FF304D
:100358004002031CB029B129BF29FF3083120313BF
:10036800C0000030C1000030B5000030B4000030DB
:10037800B3000030B200831203134108803AFF0033
:1003880080307F02031DCA29013040020318CD299D
:10039800CE29DB2983120313C001C1010030B50047
:1003A8000030B4000030B3000030B200BF01831247
:1003B80003134008B6003608C600461CE429E529A0
:1003C800E729B417EB297F30B6003608B40546088C
:1003D800B6000310360CB7003708B5003F08B60062
:1003E8003608B5048F2808000A128A11DA250A127D
:1003F8008A110A3083120313D3000030D4000A1282
:100408008A1187250A128A11831203135208D6000B
:100418005108D5000A128A1165240A128A1183121A
:1004280003135408E1005308E0000A30D3000030F9
:10043800D4000A128A1134250A128A11831203136E
:100448005208D6005108D5000A128A1165240A12EA
:100458008A11831203135408DF005308DE00600377
:100468006104031D382A392A462A013086004130A2
:1004780083120313DD00ED30DC00DC0B412ADD0BB9
:10048800412A462A02308312031360066104031DC1
:100498004E2A4F2A5C2A0330860041308312031308
:1004A800DD00ED30DC00DC0B572ADD0B572A5C2A17
:1004B80003308312031360066104031D642A652A4E
:1004C800722A07308600413083120313DD00ED30B5
:1004D800DC00DC0B6D2ADD0B6D2A722A04308312D6
:1004E800031360066104031D7A2A7B2A892A0F30C8
:1004F8008600413083120313DD00ED30DC00DC0B95
:10050800832ADD0B832A882A952A860141308312A3
:100518000313DD00ED30DC00DC0B902ADD0B902AA4
:10052800952A831203135E035F04031D9C2A9D2AE8
:10053800AA2A01308500413083120313DD00ED3013
:10054800DC00DC0BA52ADD0BA52AAA2A02308312BF
:1005580003135E065F04031DB22AB32AC02A0330C0
:100568008500413083120313DD00ED30DC00DC0B25
:10057800BB2ADD0BBB2AC02A0330831203135E0695
:100588005F04031DC82AC92AD62A073085004130CE
:1005980083120313DD00ED30DC00DC0BD12ADD0B08
:1005A800D12AD62A0430831203135E065F04031D82
:1005B800DE2ADF2AED2A0F3085004130831203132B
:1005C800DD00ED30DC00DC0BE72ADD0BE72AEC2A46
:1005D800F92A8501413083120313DD00ED30DC0078
:1005E800DC0BF42ADD0BF42AF92A831203136108C1
:1005F800803AFF0080307F02031D042B0330600225
:100608000318072B082B172B831203135F08803A54
:10061800FF0080307F02031D132B03305E02031C92
:10062800162B172B212B83120313E401E40A640C05
:10063800031C881303188817FD2983120313E40188
:10064800640C031C881303188817FD290A128A11E1
:100658000C2883120313A80028080319342B352B00
:10066800492BA31F382B392B492B2009AA00210914
:10067800AB002209AC002309AD00AA0A0319AB0A92
:100688000319AC0A0319AD0A512B2308AD0022083F
:10069800AC002108AB002008AA002308220421048A
:1006A8002004031D582B592B622B0030A300003067
:1006B800A2000030A1000030A000E82B9630A40072
:1006C8002408A900742B0130A4002408A9070130CC
:1006D8000310AD0CAC0CAB0CAA0CFF3E031D6C2B2D
:1006E800FE302D05031D792B7A2B672B962B0130B5
:1006F800A4002408A9070130AA0700300318013014
:10070800AB07003003180130AC0700300318013084
:10071800AD0701300310AD0CAC0CAB0CAA0CFF3EBE
:10072800031D8E2BFF302D05031D9B2B9C2B7B2B34
:10073800A82B0130A9020130A4000310AA0DAB0DAB
:10074800AC0DAD0DA40BA12BAC1BAB2BAC2BB22B62
:10075800023029020318B12BB22B9D2B2918B52B77
:10076800B62BBE2BFF30AA05FF30AB057F30AC059A
:10077800FF30AD050310A90C2908A400A501A601A6
:10078800A70118300310A40DA50DA60DA70DFF3E57
:10079800031DC62B2408AA042508AB042608AC04AC
:1007A8002708AD0428080319DA2BDB2BE02BA31F3D
:1007B800DE2BDF2BE02BAD172D08A3002C08A200A1
:1007C8002B08A1002A08A0000800031083120313B5
:1007D8004A0D4B0DCC004C08F5007508031DF52B90
:1007E800F62BFF2B0030CB000030CA000030C900C8
:1007F8000030C800642C4808CC004908CD004A08DD
:10080800CE004B08CF001F300310CF0CCE0CCD0C00
:10081800CC0CFF3E031D082C4C08D0005008F400F7
:10082800CA17FF30C805FF30C905FF30CA050030B8
:10083800CB059630F502F51F222C232C3D2C75088C
:10084800803A973E0318292C2A2C2B2CF62B0130A2
:100858000310CB0CCA0CC90CC80CFF3E031D2C2C72
:100868000130CC004C08F507031D3B2C3C2C2B2CED
:10087800542C20307502031C422C432C4F2CF62B91
:100888000130CC000310C80DC90DCA0DCB0DCC0B1F
:10089800462C0130F5027508031D532C542C442CAA
:1008A80074080319582C592C642CC809C909CA0999
:1008B800CB09C80A0319C90A0319CA0A0319CB0ABA
:1008C800080083120313D901D41F6B2C6C2C732CD2
:1008D800D309D409D30A0319D40AD901D90AD61FCE
:1008E800762C772C802CD509D609D50A0319D60A77
:1008F8000130D7005708D906DA01DB015308540440
:100908000319872C882CBF2CD801D80A962C0130C3
:100918000310D30DD40DFF3E031D8C2C0130D700DE
:100928005708D807D41F992C9A2C8B2C0130031008
:10093800DA0DDB0DFF3E031D9B2C54085602031DE8
:10094800A72C53085502031CAA2CAB2CB22C530815
:10095800D5025408031CD603D6025A1401300310DA
:10096800D40CD30CFF3E031DB32C0130D802031D59
:10097800BE2CBF2C9A2C59080319C32CC42CC92C83
:10098800DA09DB09DA0A0319DB0A5B08D4005A081A
:10099800D3000800831203138C1DD32CD42C2D2DC7
:1009A8001412141BD82CD92CDD2C941FDC2CDD2C14
:1009B800E42C1308F0007008F900141394131416AB
:1009C80083160313941AE92CEA2C0A2D1419ED2C1A
:1009D800EE2C0A2D831203131308F0007008F90097
:1009E8008C11141683160313141CFB2CFC2CF62CE8
:1009F800831203131308F000F1017008F70071085F
:100A0800F8005330F000F00B072D2A2D941A0D2D05
:100A18000E2D2A2D141D112D122D2A2D831203138C
:100A28001308F0007008F9008316031314108312DA
:100A380003136408930014165330F000F00B222DB2
:100A4800831603131418292D2A2D242D831203131A
:100A58008C1173088A00720E8300FE0E7E0E090048
:100A6800831203138E018F0108150330F600F60B6D
:100A78003B2D831203130811881D432D442D402D4F
:100A880010148819482D492D452D10100E08A00066
:100A98000F08A100A201A30100300A128A112D2318
:100AA8000A128A11831203132308B5002208B4001E
:100AB8002108B3002008B2004230B1006B30B0000A
:100AC8004730AF00AE30AE000A128A111B200A125E
:100AD8008A11831203133108CB003008CA002F088B
:100AE800C9002E08C8000A128A11E9230A128A11BD
:100AF800831203134908E3004808E2006308D200A0
:100B08006208D1000800831203138E018F010814B4
:100B18000330F600F60B8E2D831203130810881C81
:100B2800962D972D932D101488189B2D9C2D982D5C
:100B380010100E08A0000F08A100A201A3010030A8
:100B48000A128A112D230A128A1183120313230809
:100B5800B5002208B4002108B3002008B2004230D2
:100B6800B1006B30B0004730AF00AE30AE000A12B3
:100B78008A111B200A128A11831203133108CB0031
:100B88003008CA002F08C9002E08C8000A128A11A6
:100B9800E9230A128A11831203134908E30048085B
:100BA800E2006308D2006208D1000800831603132C
:100BB80086018312031386018316031385018312AA
:100BC80003138501831603130810831203130810F7
:100BD800831603138814081183120313081183164C
:100BE80003138815881383120313881383160313BA
:100BF8000F178F160F120F1483120313101290126F
:100C0800901040300A128A1114260A128A118B1782
:100C18000B17831603138C15831203138C1108000A
:100C2800F400740883160313930026308312031309
:100C380094008030831603139400910187150716DA
:020C48000800A2
:04400E00D423FF3F79
:00000001FF
